:020000040000fa
:080000000002040000000000f2
:020000040000fa
:100008009a0200009a0200009a0200009a02000078
:100018009a0200009a0200009a0200009a02000068
:100028009a0200009a0200009a0200009a02000058
:100038009a0200009a0200009a0200009a02000048
:10004800a62d00009a0200009a0200009a02000001
:100058009a0200009a0200009a0200009a02000028
:100068009a0200009a0200009a020000b4310000cf
:100078009a0200009a0200009a0200009a02000008
:100088009a0200009a0200009a0200009a020000f8
:100098009a0200009a0200009a0200009a020000e8
:1000a8009a020000643100009a0200009a020000df
:1000b8009a0200009a0200009a0200009a020000c8
:1000c8009a0200009a0200009a0200009a020000b8
:1000d8009a0200009a0200009a0200009a020000a8
:1000e8009a0200009a0200009a0200009a02000098
:1000f8009a0200009a0200009a0200009a02000088
:100108009a0200009a0200009a0200009a02000077
:100118009a0200009a0200009a0200009a02000067
:100128009a0200009a0200009a0200009a02000057
:100138009a0200009a0200009a0200009a02000047
:100148009a0200009a0200009a0200009a02000037
:100158009a0200009a0200009a0200009a02000027
:100168009a0200009a0200009a0200009a02000017
:100178009a0200009a0200009a0200009a02000007
:100188009a0200009a0200009a0200009a020000f7
:100198009a0200009a0200009a0200009a020000e7
:1001a8009a0200009a0200009a0200009a020000d7
:1001b8009a0200009a0200009a0200009a020000c7
:1001c8009a0200009a0200009a0200009a020000b7
:1001d8009a0200009a0200009a0200009a020000a7
:1001e8009a0200009a0200009a0200009a02000097
:0801f8009a0200009a020000c7
:020000040000fa
:100208009a0200009a0200009a0200009a02000076
:100218009a0200009a0200009a0200009a02000066
:100228009a0200009a0200009a0200009a02000056
:100238009a0200009a0200009a0200009a02000046
:10024800a62d00009a0200009a0200009a020000ff
:100258009a0200009a0200009a0200009a02000026
:100268009a0200009a0200009a020000b4310000cd
:100278009a0200009a0200009a0200009a02000006
:100288009a0200009a0200009a0200009a020000f6
:100298009a0200009a0200009a0200009a020000e6
:1002a8009a020000643100009a0200009a020000dd
:1002b8009a0200009a0200009a0200009a020000c6
:1002c8009a0200009a0200009a0200009a020000b6
:1002d8009a0200009a0200009a0200009a020000a6
:1002e8009a0200009a0200009a0200009a02000096
:1002f8009a0200009a0200009a0200009a02000086
:100308009a0200009a0200009a0200009a02000075
:100318009a0200009a0200009a0200009a02000065
:100328009a0200009a0200009a0200009a02000055
:100338009a0200009a0200009a0200009a02000045
:100348009a0200009a0200009a0200009a02000035
:100358009a0200009a0200009a0200009a02000025
:100368009a0200009a0200009a0200009a02000015
:100378009a0200009a0200009a0200009a02000005
:100388009a0200009a0200009a0200009a020000f5
:100398009a0200009a0200009a0200009a020000e5
:1003a8009a0200009a0200009a0200009a020000d5
:1003b8009a0200009a0200009a0200009a020000c5
:1003c8009a0200009a0200009a0200009a020000b5
:1003d8009a0200009a0200009a0200009a020000a5
:1003e8009a0200009a0200009a0200009a02000095
:0803f8009a0200009a020000c5
:020000040000fa
:10040000cfa320000e7f22000e0188000000000014
:10041000000020000000e000020032000001200087
:10042000200288000c000700009d2200010020002f
:1004300011000700000020000000e0000200320070
:100440000000020000000000243202000000000052
:100450000040da000000fe004440a900801e210098
:100460000000e0000300320000002000a00188002e
:100470004440a80000000600910188008000780038
:100480000000eb0015003700e280400032a0b4000d
:100490009101ba00e280400032a0b4009102ba009b
:1004a000e280400032a0b4000002eb00472bde00e7
:1004b000f507b200602ce10004003a000059eb009f
:1004c0008301e900fdff3e00040037006128e100e0
:1004d000010032000082eb00040007001101ba00a5
:1004e0000200e000e8ff3a00000006003159ba00bf
:1004f0008301e9000c0032002159ba008301e900b0
:10050000080032000400e00003003a00e2804000ee
:1005100032a0b400f5ff370011d9ba008301e90019
:10052000faff3a008100e800e180400032a0b40008
:10053000000006000040da000000fe000a00fa0099
:10054000e20f500022003e00d4518000e10f520023
:1005500006003200872320004623200024232000a9
:1005600005232000e08f530004003a00872220007a
:10057000462220002422200005222000000028001e
:100580001500600003003a00800b78000700280087
:10059000958a7300054020009482620001003a00b1
:1005a00014a0a000820278000600370094037800af
:1005b0000710b200fdff3200b103fb00070b78000b
:1005c0008502e900e08f5200f8ff3a00080037008a
:1005d00034002000c0bf9f00e2bf9f00b4bf9f0057
:1005e000d1bf9f006a805700ce0507006fb9970002
:1005f000020078000080fa000000060003f0a2006c
:10060000889fbe008a9fbe008c1f7800fa000700fa
:10061000010133006450e1004f0032006420e1002a
:100620005200320003826c0007003b000905d00035
:100630000306d000820f54000c065d000200390052
:100640000200320089017800030678008582550097
:1006500004003d000003fd008103fd008502ea0067
:100660008b854200840f720002003b006000100086
:10067000e08018006011b8000005eb007a28e10066
:100680000a00390006007800c75ddd00f707b200f8
:10069000878075002d003700828171000a01780083
:1006a000610560008180d1000080d3008502e900ef
:1006b000f9ff3b00060440008784480002003b002d
:1006c00060041400e0841c000988a30007003200c5
:1006d0008a81710082817100610164008904d10006
:1006e0000884d3008b05e800170037000978a300c1
:1006f00013003a000b00e000130034008b05e90002
:100700000804440089844c000a4474000978a3005a
:100710000d003a000b00e000070034008b05e900f3
:100720000804440089844c0001003a000b002000ba
:100730000978a300f7ff32000001eb000200370048
:10074000828171000a017800700007000cf0a70098
:1007500001f0a000b90037006420e10002003a0077
:10076000838f6c00b90033000801be000200be0098
:10077000b2003700889fbe008a9fbe008c1f7800a1
:100780009d000700a400330003866c006450e10064
:100790002e0032006420e100330032006150e1009d
:1007a0002f0032006120e1003100320085855500c4
:1007b000eb07b00009002000080420000500370006
:1007c0000804440089844c000a00310006034300f9
:1007d00087834b000001530081815b00f8ff3300e9
:1007e0000203be000800a0000804440089844c00f5
:1007f000f6ff3900c639dd008301730001003200c5
:10080000130020008904d1000884d3000998a300b4
:10081000050032000800a7000300a0008904d100f1
:100820000884d3008b05e8008904d1000884d30034
:100830000001eb000281d2003400070001f0a100aa
:100840000cf0a70001f0a0007c0037006420e1005c
:100850007e0032000801be000200be00f7ff370034
:100860006120e100790032006000b800f3ff37003a
:100870000000200001f82700f0ff370014002000de
:10088000a9003700f4ff2f00a70037000001be00c9
:10089000440007000470a70003f0a10003f8a300c0
:1008a00013003a006509b10010003200090035005c
:1008b0006928e10002003500010028000000050061
:1008c00000004000818048008502e900fcff3a00fa
:1008d00000000600f88f4200050035008100d100bd
:1008e0000080d3008502e800fcff3a00000006000b
:1008f0008000eb00000005004f89de0082017800d7
:10090000a40037006011b800b20037008100200059
:10091000618055000b003d000b00200061fe2f00a0
:100920000100e1001d00340082817100610164005a
:100930008904d1000884d3000000e800faff3a00df
:10094000710020006100640003007000020060007c
:100950000900320061044400e0844c000988a500cd
:10096000050032008b05e8006808e10002003a004b
:100970008904d1000884d300f20f20000258e1005e
:1009800005003d00c75ddd00f907b20089807500f4
:1009900008007800000006000bf827008b007800a4
:1009a00000000500c70ade00f107b200f50fb20033
:1009b00008003200e1cf4200020032000170a000c6
:1009c00024000500810f70000100320004080500ba
:1009d00044000500810f700002003a001400050079
:1009e0008502e9000000400081c04800fcff3b0098
:1009f0000170a000240005000004be00e9ff07000c
:100a00000003be000405be000200be00e5ff0700b3
:100a1000844f7500000006000200be006450e10033
:100a2000050036006420e100020036000968a300da
:100a300001003a000800be000160a0004f067800e7
:100a40004f05be004f04be0000000600f0ff2f005f
:100a5000f1ff2700f9ff3700889fbe008a9fbe0084
:100a60008c1f7800e4ff0700ebff330003866c0067
:100a70006450e100240032006420e10027003200cd
:100a80006150e100220032006120e10021003200cb
:100a90008b854200eb07b1000134b800003ab80082
:100aa0000804420089844a00013ab8000030b800c6
:100ab0008880400009014a00040033000000400023
:100ac00081804800020149008b05e900c909dd0069
:100ad000830170000100320013002000c814de0002
:100ae0004814dd004709de001200b200c808de002d
:100af0000884700085ff070001f0a1000cf0a7003a
:100b000001f0a000cdff37006120e100cfff3200ef
:100b10000801be000200be00f7ff37006150e1008f
:100b2000fcff3a00c9ff3700889fbe008a9fbe00c5
:100b3000841f7800b0ff07004f00780011003300d9
:100b4000f0ff2f00838f6c0006003b00040565005a
:100b50000a00a7000800370009f0a60010002000d6
:100b600008003700820f5400838f5c0003003900b7
:100b70001000200001003e000000200009f0a70046
:100b80000000ea004f05be004f04be000000e00078
:100b900000000600881f7800030478000300e000ce
:100ba00007003d0060001000e0801800600119009f
:100bb000e081190002003b0001f02d000300370026
:100bc0000400070008f0a70001f0a0004f0478001f
:100bd00000000600889fbe008a9fbe000082700051
:100be0000402710004827100260032000004be007d
:100bf0000200be006011b8006b09200095022000c1
:100c00000182cf000a0039000541b1000082cf0007
:100c1000070039000541b1000982cf000400390006
:100c20000541b1000882cf00010039000541b10043
:100c300005425200120032000a003b00828171001e
:100c4000610164008100d1000080d3008984d30059
:100c50000884d3008b05e8000442e800f7ff3a005f
:100c6000070037000804440089844c000000480055
:100c7000818048008b05e9000442e900f9ff3a0051
:100c800022ff07004f05be004f04be000000060013
:100c9000b042780031c2520002003a00e0cf520068
:100ca000fbff3a000400fb00000006000002780091
:100cb0008042eb00b4cf1200fdff3a000080ea0052
:100cc00000004200000006000c00fa00889fbe00f1
:100cd000f4ff270000047800d4bf9f008004eb00dd
:100ce00088bf9f0099bf9f00a8bf9f00240c2000d1
:100cf00078815700b4bf9f00cfb097007080570035
:100d0000070007000fba9700094a78000fba97004a
:100d1000080052004f04be000080fa0000000600e8
:100d2000ef03b000889fbe008a9fbe008c9fbe006c
:100d3000800678008e1f78000007eb00d1af9f007f
:100d4000a2b79f0065033700dfa8970054c2b30025
:100d50008100e800d1af9f00844f500006003a00a8
:100d6000010278000006eb0001c3b30000c2b3002b
:100d7000b7c2b3000e0037003d0290000404b20079
:100d8000040032001d027800004a7800840ee8005a
:100d9000050037000000fb008d0078005b030700b2
:100da000e10f40004d0332000e07e8004b0337000f
:100db00084027800d2c2b30034437800824f5300db
:100dc0000900320005003c00804f5300080032004b
:100dd000874f53000c003a0007003700814f530043
:100de00009003a00060037000c30a000f0ff370081
:100df0000c00a000eeff37000c10a000ecff370045
:100e00000c20a000eaff37006202660001003200f9
:100e10000c00a10068026600010032000c20a10055
:100e20000602fb000403b100e90f52000c003e0073
:100e3000050378000002eb00b603fb006a22b9004c
:100e40000703b10086027800048243009603fb008a
:100e50000703b100e98f5300f7ff360008003700a1
:100e60000002eb00a7c2b300874f530004003a0012
:100e7000afb197008502e80043027800a3b79f0056
:100e80000003eb0096b79f00e6c2b300954f130036
:100e90000c003a000ce0a00064435300d54f13004f
:100ea00003003200050378000000eb000900370062
:100eb000afb397008502e80047047800a7b79f000a
:100ec00098b79f0005037800090037006a00b90051
:100ed0000080430086027800b603fb000703b100e0
:100ee000e98f5300f9ff360090b79f00f5ff3700f8
:100ef000b6427800cac6b300d6af9f008acf520070
:100f0000250032000f003c0036c6b30086cf5200e9
:100f10009d00320004003c00e0cf5200f402320099
:100f20006b4353000f00370046c6b30086cf520014
:100f3000170032006543430086cf5200b1003a00eb
:100f40001300370036c7b30086cf520020003200ae
:100f500007003c006443530086cf52001500320066
:100f60000643e80086cf5200a6003a00140037007e
:100f700056c7b30086cf5200a90032006343430036
:100f800086cf52009f003a00e5779f000e003700a1
:100f9000e5779f00a4003700f003660005012000fc
:100fa00001003200050028008c82720005067800de
:100fb000cfff3700e5779f000c60a0009a00370054
:100fc000e5779f000c50a0000c70a0009600370041
:100fd000afb59700e5779f00cb027800abb79f00d5
:100fe000b5b79f00e08f520002003a0061962000e2
:100ff000b1b79f003fb397008002eb0001003700bc
:101000008502e800e6c37a00e0cf5300fcff3a0017
:10101000c5b79f001fb19700e00f510005003200d7
:10102000cfb19700830f5100020031008202780097
:10103000c5b79f00cfb297000004eb00850f5200a8
:1010400001003600050452006806660009c2b300bc
:101050000f003200290037003d0290000404b20066
:10106000040032001d027800094a7800840ee8006e
:10107000050037008d00780000022000a302070061
:10108000e10f4000010032000e07e8000804e9000b
:10109000e00f5400f0ff3a000084eb001700370027
:1010a000bd0290000504b2000900320088027800f9
:1010b0009d03780035437800864b7800050478005e
:1010c000870ee800e04f53000a003a001000370096
:1010d000880278008d0078003500fb0084bf9f00f7
:1010e00005047800890207000fba9700e10f40005d
:1010f000070032000e07e8000500370008027800fc
:101100003fb49700cfb497005fb59700efb5970055
:10111000890278008504e900e08f5200e0ff3a0080
:10112000b8b79f00c9b79f00dab79f00ebb79f0021
:101130000404780009c2b300e00f56000f003a0023
:10114000660237003d0290000404b2000400320041
:101150001d027800094a7800840ee8000500370077
:101160008d0078000002200068020700e10f4000b7
:10117000010032000e07e8000804e900e00f540007
:10118000f0ff3a0055023700afb0970070036600d9
:1011900041047800a1b79f00cfc4de0009057800a4
:1011a0008a0578000800be000a01be004800de0083
:1011b000c80add0000807200e0779f00e00f530056
:1011c00009003200e04f500007003200e14f4000bc
:1011d0000500320026002000f0779f00887f9f00e6
:1011e000c6b79f000300370017002000c7b79f0055
:1011f000f8779f0078fb2f0008844700b8b79f005e
:1012000084ff370069fb2f001a0020008984470003
:10121000e5779f00b9b79f00cab79f007dff3700f1
:10122000e5779f000c0cb3008c027800050cb2002f
:101230003b003a00e00f560005003d00afb29700ba
:101240004501be004500be00a5b79f000f00370056
:10125000f0026600120032002fb497004803be006f
:10126000f69f9f0087a79f00a8b79f009802900055
:10127000cfaade0095a79f00a5a79f007f989700a3
:101280008fa097001fa19700afa19700b0b79f0054
:10129000c1b79f00d2b79f00e3b79f000b00370094
:1012a000afb09700c102780005047800cfc4de001b
:1012b000090578008a057800a1b79f00b8b79f009c
:1012c000c9b79f00dab79f00ebb79f003fb0970008
:1012d000cfb097005fb19700efb19700e00f5000db
:1012e000e08f5800e00f5900e08f590032003d00b8
:1012f0006000b8006011b8003fb49700cfb4970009
:101300005fb59700efb597003c00b30008045000ac
:10131000898458000a0559008b855900220037003e
:10132000e00f560005003d00afb297004501be003a
:101330004500be00a5b79f000f003700f002660011
:10134000120032002fb497008004eb004803be0067
:101350000005eb0096af9f00a7af9f00b9af9f00bd
:10136000caaf9f001fa89700afa897003fa997009a
:10137000cfa99700a8b79f00b0b79f00c1b79f0043
:10138000d2b79f00e3b79f000b003700afb09700c4
:10139000c1027800a1b79f00050478000900200071
:1013a0000a0020000b002000b8b79f00c9b79f00bb
:1013b000dab79f00ebb79f009fb49700e08f54000f
:1013c0000d003a001a0020003fb09700cfb0970000
:1013d0005fb19700efb197009ab79f00e00f500000
:1013e000e08f5800e00f5900e08f590002003200f2
:1013f0008000eb0091b79f000c01780005042000ed
:10140000020cb20082b79f00850f510034003200f9
:1014100003003c00e00f5100080032004800370094
:10142000050820008fb19700858f5100140032000d
:10143000050c2000858f510041003a00669720007e
:1014400015c0b3003600be003601be003fb49700a1
:10145000cfb497005fb59700efb597000040e1006b
:1014600001c8e10002d0e10003d8e10033003900f7
:101470008542e800f4cf5200f2ff3a002f00370017
:1014800015c0b30000012000010020006011b80069
:101490003fb49700cfb497005fb59700efb59700c2
:1014a0000040e10001c8e10002d0e10003d8e10002
:1014b00022003900490020000000d0008180d200c5
:1014c0000281d2008381d2008904e900faff3a0048
:1014d0008542e800f0cf5200edff3a0017003700d8
:1014e00015c0b30080002000010020006011b8008a
:1014f0003fb49700cfb497005fb59700efb5970062
:101500000040e10001c8e10002d0e10003d8e100a1
:101510000a003900390020000000d0008180d2008c
:101520000281d2008381d2008904e900faff3a00e7
:101530008542e800f5cf5200edff3a00e5779f00c5
:101540006f7597009fb597008a02fb008b8f520042
:1015500002003d00eb779f00040037001fb09700aa
:10156000850f500001003d0095b79f00e00f52002d
:1015700003003200e3026600010032000402e900c9
:101580000500240085026600060032009fb0970027
:10159000810f5200020034000102520001003700a6
:1015a0000002eb006f7197008001eb008202fb00ec
:1015b000f3af9f00850f52000200340085025200f5
:1015c000f5af9f00640266003b003200e202660055
:1015d00061026600e08f520011003200bd029000ef
:1015e0000504b200080032009d027800b6c2b300c4
:1015f000e00f52000100320006c3e800864a78007e
:10160000850ee80015003700b0022000e00f520000
:10161000010032000080e8008d0078000c003700e7
:10162000e00f52000e0032003d0290000404b200b0
:10163000050032001d02780005c2b300054a78009b
:10164000840ee800050037008d00780000022000bd
:101650002e010700e10f4000010032000e07e800f4
:101660007faa9700e00f52004f00320008c3b3007a
:10167000840478003d0290000404b20004003200ab
:101680001d027800084a7800840ee8000500370043
:101690008d007800000320001c010700e10f4000ce
:1016a000010032000e07e8008904e900f1ff3a006a
:1016b000f9af9f003c003700ffaa9700e08f52006f
:1016c000140032006802660012003a0008c2b3003b
:1016d000850478003d0290000404b200040032004a
:1016e0001d027800084a7800840ee80005003700e3
:1016f0008d0078000002200004010700e10f400087
:10170000010032000e07e8008904e900f1ff3a0009
:10171000f9af9f00e202660061026600e08f5200ae
:1017200011003200bd0290000504b2000800320032
:101730009d027800b6c2b300e00f520001003200f3
:1017400006c3e800864a7800850ee80015003700d9
:10175000b0022000e00f5200010032000080e800db
:101760008d0078000c003700e00f52000e003200b0
:101770003d0290000404b200050032001d02780012
:1017800005c2b300054a7800840ee8000500370062
:101790008d00780000022000dc000700e10f40000f
:1017a000010032000e07e8001fb39700e596200005
:1017b0000602e900f0046600c223dd000c05780093
:1017c000c7a79f000a02b2006323b900e99f9f00e8
:1017d000060478004322dd00b8a79f00850242007e
:1017e000da9f9f00e5af9f00a30037009fb59700e9
:1017f0000fb097008b05e900010420009bb79f0004
:10180000810f50007300320003003c00e00f5000d5
:10181000080032007e003700040820000fb1970056
:10182000840f510056003200040c2000840f510038
:1018300077003a00e00f56001f003d00efa9970027
:101840003304be002305be003fb09700cfb0970021
:101850005fb19700efb197000802be000a03be0017
:10186000f30107000802be000a03be00e0779f00f4
:101870000000fb00cf80de000101780082017800cb
:10188000540207003fb29700cfb297005fb39700b2
:10189000efb397000002520081825a0002035b00fe
:1018a00083835b00b4b79f00c5b79f00d6b79f0086
:1018b000e7b79f002e003700ef9a9700e08f5200a5
:1018c000220032006fab97003fb29700cfb2970073
:1018d0003604be002605be000400be000801be009e
:1018e00084bf9f00f5b79f000005eb000f010700c4
:1018f0000801be00e0779f000000fb00cf80de0003
:101900001a0107000fba9700ffb297008aaf9f0035
:101910000004520081845a00d8a79f00e9a79f00c5
:101920008004eb00f9a79f005fa09700efa097004d
:101930007fa197008fa99700b0b79f00c1b79f0004
:10194000d2b79f00e3b79f0009003700efa89700c8
:101950003fb1970011027800110009000481d800fe
:10196000a4002000110009000480d800e1779f0046
:10197000ef7197000343b000e3779f002400370026
:1019800054952000df9a9700e08f5200010032004a
:10199000449420003fb09700cfb097005fb197000c
:1019a000efb197004fa397000603e900050033004d
:1019b0008301d1000281d3008180d3000080d30055
:1019c000f9ff37006f00600064407800e0779f0007
:1019d0000f0037003fb29700cfb297005fb3970078
:1019e000efb397003fa497000804e9000500330017
:1019f0008703d1000683d3008582d3000482d300fd
:101a0000f9ff3700674262000443b000e4779f00ab
:101a10003d0290000404b200070032009d027800ed
:101a20006f729700844a7800850ee800e04f5200fc
:101a300007003a0007003700ef7497008d00780028
:101a40000900fb0031000700e10f400001003200f7
:101a50000e07e8004fa59700bfa597006fa8970055
:101a600064055500e385550068005000caa79f0033
:101a7000bba79f00e0af9f009fb09700e08f500092
:101a80005aff3a0068066600140032007fa99700ea
:101a9000e00f51001100340008c2b3008204780046
:101aa0003d0290000404b200040032001d027800e0
:101ab000084a7800840ee800050037008d007800a1
:101ac0000002200011000700e10f40000100320079
:101ad0000e07e8008904e900f1ff3a00dfa997004a
:101ae00013407800e0779f00e04f500096fc3a00ea
:101af0000e0078004f0778004f06be004f05be006d
:101b00004f04be00ef03b10000000600889fbe0036
:101b1000010478008084eb0038029000e202620049
:101b20003b00320004037800980290000620b200c7
:101b300002003a00e08f520035003a000490a00005
:101b40008004780034049800f90fb200e08f52004e
:101b500002003a00a8029000050c7800ea8f5400b9
:101b600005003a000408b20003003a00880078003b
:101b7000d0002000e5ff070018029000d802900076
:101b8000850f52000b0032000402e80015c0b300bc
:101b90001404980018027800094a7800040ce80040
:101ba00044a32000054a7800ea8f540018003a0048
:101bb000050037000940780088007800170007000a
:101bc0008004780012003700380290000410b20040
:101bd0000f00320018019000a8009000480090000b
:101be00056fa070018029000840f500004003200db
:101bf000380290000403b300340498008084eb00a2
:101c00000002eb001404980028029000040c7800f5
:101c1000090078004f04be00000006000200fa0030
:101c2000889fbe0001047800a0ff9f00380290004a
:101c3000840278000504b200020032000000fb00bc
:101c400035003700e202620005003a000403b300e9
:101c500015049800340498000080eb002e00370033
:101c6000d8049000e08f540006003a0012002000d3
:101c7000e68057004800900030fa070019049800e9
:101c800023003700a8029000e08f520008003a00bd
:101c900075a320000430a00025049800050c7800ee
:101ca000340498002500200055049800150498007d
:101cb00018019000a8009000480090001ffa07004b
:101cc000280290008082eb0015049800affa97007c
:101cd000054a7800040ce8002ffa9700ea4f5200fa
:101ce0000b003a00380290000410b20008003200e5
:101cf00018019000a8009000480090000ffa07001b
:101d00000002eb00a802900014049800050c780073
:101d10002ffa97000400fb004f04be000080fa0079
:101d20000000060000c0da00000006006022b800d3
:101d3000060220000000d0008180d2000482d20080
:101d40008582d2000000a0000202520083825a0065
:101d5000030031000202420083824a000000a10019
:101d60000603e900f3ff3a0000000600020ab9008a
:101d7000001bb9000200b80081004200810043004e
:101d800000000600889fbe008a9fbe003004be008f
:101d90002005be000404440085844c0006054d0067
:101da00087854d000898be000a90be000440e100ff
:101db00005c8e10006d0e10007d8e10002003100cb
:101dc000680040001008e8004f05be004f04be0048
:101dd000000006001000fa00889fbe008a9fbe0027
:101de000110020000605be000404be003002be0043
:101df0002003be00c4b79f00d5b79f00e6b79f0081
:101e0000f7b79f000802520089825a000a035b005c
:101e10008b835b0084bf9f0095bf9f00a6bf9f0080
:101e2000b7bf9f000498be000698be004fb297004f
:101e3000dfb297006fb39700ffb397000820e1006f
:101e400009a8e1000ab0e1000bb8e1000100390087
:101e50008000eb004f05be00108810004f04be004c
:101e60000080fa00000006001400fa00889fbe00ff
:101e70008a9fbe008c9fbe000006eb003e0007005c
:101e8000ccb79f00bcb79f00acb79f009cb79f002a
:101e90008cb79f000605be000404be000d042000a0
:101ea0004fb39700bfb29700860343002fb297004d
:101eb000e00f530004003d003d0007000f0040000c
:101ec000b0ff070003003700390007000f00400093
:101ed000c0ff0700cfb2970095bf9f00e08f520070
:101ee000090035002b000700140020000500200029
:101ef0006033b8000000720081807200020173003c
:101f0000838173001c0007000c06e8008d0f56004b
:101f1000e3ff3a001fba9700e00f520005003d00b2
:101f20000802be000a03be0000fe2f000f004000a2
:101f300094ff07004faa9700e00f520008003a00f4
:101f40000fb497009fb497002fb59700bfb59700c7
:101f5000d8b79f00e9b79f00fab79f008bbf9f00db
:101f60000c0007004f06be004f05be004f04be0028
:101f70000080fa00000006000100070000000600d3
:101f800090b79f00a1b79f00b2b79f00c3b79f0053
:101f90000000060001000700000006001fb09700c7
:101fa000afb097003fb19700cfb197000000060097
:101fb0004f2bde00f9ff0700868373008582420005
:101fc0004f23de00a7b79f00868272000402420002
:101fd00095b79f00ffaa97004f2bde008582420035
:101fe0000602720084b79f006faa97004f23de009d
:101ff0000402420086827200f5af9f004f18de0097
:1020000000027200e5ff0700e4af9f0000004000ff
:102010008180480002014900838149000802be0016
:102020000a03be00d6ff070000fe2f0000000600d6
:10203000881f780018002000881f78008aff07009a
:102040008f87e9004f04780000000600801feb0036
:1020500085ff07008f87e90000000600889fbe000b
:102060008a9fbe00e00f5000e08f5800e00f59003b
:10207000e08f59000c003d006044b8006055b80086
:102080000000540081805c0002015d0083815d00de
:10209000180020001500070008003d001800070088
:1020a0000004eb00050037000004eb000f00070000
:1020b00002003d001200070018002000dcff0700ae
:1020c000e00f5400060032006022b8006033b80010
:1020d0000000520081805a0002015b0083815b0096
:1020e0004f05be004f04be0000000600e00f520086
:1020f000e08f5a00e00f5b00e08f5b0000000600fd
:102100006044b8006055b8000402540085825c0049
:1021100006035d0087835d0000000600889fbe0007
:102120008a9fbe008c1f7800e00f5000e08f58009f
:10213000e00f5900e08f59000d003d006044b800e9
:102140006055b8001c0020000000540081805c0035
:1021500002015d0083815d000820e10009a8e10023
:102160000ab0e1000bb8e1000d003d0008003700a7
:102170000006eb00e00f5200e08f5a00e00f5b001a
:10218000e08f5b0006003d006044b8006055b80079
:102190000402540085825c0006035d0087835d00b5
:1021a000aaff0700e00f5600060032006022b800c8
:1021b0006033b8000000520081805a0002015b00c9
:1021c00083815b004f0678004f05be004f04be00c0
:1021d00000000600889fbe008a9fbe008c1f78000a
:1021e0000006eb00e00f5000e08f5800e00f5900b0
:1021f000e08f590007003d006044b8006055b8000a
:102200001c0020000000540081805c0002015d0081
:1022100083815d00e00f5200e08f5a00e00f5b0009
:10222000e08f5b0007003d006044b8006055b800d7
:102230000c00a2000402540085825c0006035d00cd
:1022400087835d000c000700e00f56000600320097
:102250006022b8006033b8000000520081805a004c
:1022600002015b0083815b004f0678004f05be00d2
:102270004f04be0000000600889fbe008a9fbe007b
:102280008c9fbe000404b8000506b800890446000f
:1022900060854e000606b8000a054600e0854e003f
:1022a0000706b8008b054600040eb80089044600f6
:1022b0000a854e00e0854d00050eb8000a0546006f
:1022c0008b854e00060eb8008b0546000416b8003c
:1022d0000a0546008b854e000516b8008b054600a2
:1022e000041eb8008b0546000800be000a01be00af
:1022f0004f06be004f05be004f04be0000000600a2
:020000040000fa
:1023000000000000000000000000000000000000cd
:1023100000000000000000000000000000000000bd
:1023200000000000000000000000000000000000ad
:10233000000000000000000000000000000000009d
:102340000000000000e00000f0f80000fcfc0000cd
:10235000fefe0000fefe00001e0e00000200000057
:10236000000000000000000000000000000000006d
:10237000000000000000000000000000000000005d
:10238000000000000000000000000000000000004d
:10239000000000000000000000000000000000003d
:1023a000000000000000000000000000000000002d
:1023b000000000000000000000000000000000001d
:1023c000000000000000000000000000000000000d
:1023d00000000000000000000000000000000000fd
:1023e00000000000000000000000000000030000ea
:1023f0000f1f00003f7f0000ffff0000ffff0000f5
:10240000fffe0000fcf80000f8f00000f8fe0000fd
:10241000fefc0000f8e000000000000000000000ea
:1024200000000000000000000000000000000000ac
:10243000000000000000000000000000000000009c
:10244000000000000000000000000000000000008c
:10245000000000000000000000000000000000007c
:10246000000000000000000000000000000000006c
:10247000000000000000000000000000000000005c
:1024800000000000f8fc0000fefe0000ffff00005e
:10249000f3e00000e0c00000c0c00000e0e0000089
:1024a000f1ff0000ffff0000ffff0000ffff000042
:1024b000ffff0000ffff0000ffff0000ffff000024
:1024c0003e000000000000000000000000000000ce
:1024d00000000000000000000000000000000000fc
:1024e00000000000000000000000000000000000ec
:1024f00000000000000000000000000000000000dc
:1025000000000000000000000000000000000000cb
:1025100000000000000000000000000000000000bb
:10252000000000000000000000000000ffff0000ad
:10253000ffff0000ffff0000ffff0000ffff0000a3
:10254000ffff0000ffff0000ffff0000ffff000093
:10255000ffff0000ffff0000ffff0000ff7f000003
:102560003f1f000007010000000000000000000005
:10257000000000000000000000000000000000005b
:10258000000000000000000000000000000000004b
:10259000000000000000000000000000000000003b
:1025a000000000000000000000000000000000002b
:1025b000000000000000000000000000000000001b
:1025c000000000000000000000000000000000000b
:1025d00000000000ffff0000ffff0000ffff000001
:1025e000ff7f00003f1f00000f0f00000f070000db
:1025f00007070000070700000707000003030000ab
:1026000001010000000000000000000000000000c8
:1026100000000000000000000000000000000000ba
:1026200000000000000000000000000000000000aa
:10263000000000000000000000000000000000009a
:10264000000000000000000000000000000000008a
:10265000000000000000000000000000000000007a
:10266000000000000000000000000000000000006a
:102670000000000000000000000000003f1f0000fc
:102680000f07000003010000000000000000000030
:10269000000000000000000000000000000000003a
:1026a000000000000000000000000000000000002a
:1026b000000000000000000000000000000000001a
:1026c000000000000000000000000000000000000a
:1026d00000000000000000000000000000000000fa
:1026e00000000000000000000000000000000000ea
:1026f000000000000000000000000000005f00007b
:1027000000000000000700000007000000140000a7
:102710007f1400007f140000242a00007f2a00009c
:102720001223000013080000646200003649000014
:1027300055220000500000000503000000000000ca
:10274000001c0000224100000000000041220000a7
:102750001c000000140800003e08000014080000df
:10276000083e000008080000005000003000000093
:1027700000080000080800000808000000600000d1
:1027800060000000002000001008000004020000ab
:102790003e510000494500003e000000427f00001d
:1027a0004000000042610000514900004621000045
:1027b000414500004b31000018140000127f00005a
:1027c0001027000045450000453900003c4a000044
:1027d00049490000300100007109000005030000b4
:1027e000364900004949000036060000494900000a
:1027f000291e000000360000360000000000000026
:1028000056360000000000000814000022410000bd
:102810000014000014140000141400000041000013
:102820002214000008020000015100000906000007
:1028300032490000794100003e7e00001111000085
:10284000117e00007f49000049490000363e00002b
:1028500041410000412200007f4100004122000070
:102860001c7f000049490000494100007f09000029
:1028700009090000013e000041490000497a0000ba
:102880007f080000080800007f000000417f000072
:102890004100000020400000413f0000017f000097
:1028a00008140000224100007f400000404000006a
:1028b000407f0000020c0000027f00007f04000047
:1028c000081000007f3e000041410000413e000032
:1028d0007f09000009090000063e00004151000088
:1028e000215e00007f090000192900004646000013
:1028f0004949000049310000010100007f0100004a
:10290000013f000040400000403f00001f20000049
:10291000402000001f3f000040380000403f000002
:102920006314000008140000630700000870000032
:102930000807000061510000494500004300000005
:102940007f41000041000000020400000810000068
:1029500020000000414100007f0000000402000050
:102960000102000004400000404000004040000020
:102970000001000002040000002000005454000088
:10298000547800007f4800004444000038380000bc
:102990004444000044200000384400004448000043
:1029a0007f3800005454000054180000087e0000d6
:1029b00009010000020c000052520000523e0000cb
:1029c0007f0800000404000078000000447d00003f
:1029d0004000000020400000443d0000007f000057
:1029e0001028000044000000004100007f4000006b
:1029f000007c000004180000047800007c0800003f
:102a0000040400007838000044440000443800000a
:102a10007c140000141400000808000014140000c6
:102a2000187c00007c080000040400000848000036
:102a30005454000054200000043f000044400000b3
:102a4000203c000040400000207c00001c200000d2
:102a5000402000001c3c000040300000403c0000d2
:102a60004428000010280000440c000050500000d2
:102a7000503c000044640000544c0000440000003e
:102a80000836000041000000000000007f00000048
:102a9000000000004136000008000000100800009f
:102aa0000810000008780000464100004678000049
:102ab0000000000000000000000000000000000016
:102ac0000000000000000000000000000000000006
:102ad00000000000000000000000000000000000f6
:102ae00000000000000000000000000000000000e6
:102af0000000000000e00000f0f80000fcfc000016
:102b0000fefe0000fefe00001e0e0000020000009f
:102b100000000000000000000000000000000000b5
:102b200000000000000000000000000000000000a5
:102b30000000000000000000000000000000000095
:102b40000000000000000000000000000000000085
:102b50000000000000000000000000000000000075
:102b60000000000000000000000000000000000065
:102b70000000000000000000000000000000000055
:102b80000000000000000000000000000000000045
:102b90000000000000000000000000000003000032
:102ba0000f1f00003f7f0000ffff0000ffff00003d
:102bb000fffe0000fcf80000f8f00000f8fe000046
:102bc000fefc0000f8e00000000000000000000033
:102bd00000000000000000000000000000000000f5
:102be00000000000000000000000000000000000e5
:102bf00000000000000000000000000000000000d5
:102c000000000000000000000000000000000000c4
:102c100000000000000000000000000000000000b4
:102c200000000000000000000000000000000000a4
:102c300000000000f8fc0000fefe0000ffff0000a6
:102c4000f3e00000e0c00000c0c00000e0e00000d1
:102c5000f1ff0000ffff0000ffff0000ffff00008a
:102c6000ffff0000ffff0000ffff0000ffff00006c
:102c70003e00000000000000000000000000000016
:102c80000000000000000000000000000000000044
:102c90000000000000000000000000000000000034
:102ca0000000000000000000000000000000000024
:102cb0000000000000000000000000000000000014
:102cc0000000000000000000000000000000000004
:102cd000000000000000000000000000ffff0000f6
:102ce000ffff0000ffff0000ffff0000ffff0000ec
:102cf000ffff0000ffff0000ffff0000ffff0000dc
:102d0000ffff0000ffff0000ffff0000ff7f00004b
:102d10003f1f00000701000000000000000000004d
:102d200000000000000000000000000000000000a3
:102d30000000000000000000000000000000000093
:102d40000000000000000000000000000000000083
:102d50000000000000000000000000000000000073
:102d60000000000000000000000000000000000063
:102d70000000000000000000000000000000000053
:102d800000000000ffff0000ffff0000ffff000049
:102d9000ff7f00003f1f00000f0f00000f07000023
:102da00007070000070700000707000003030000f3
:102db0000101000000000000000000000000000011
:102dc0000000000000000000000000000000000003
:102dd00000000000000000000000000000000000f3
:102de00000000000000000000000000000000000e3
:102df00000000000000000000000000000000000d3
:102e000000000000000000000000000000000000c2
:102e100000000000000000000000000000000000b2
:102e20000000000000000000000000003f1f000044
:102e30000f07000003010000000000000000000078
:102e40000000000000000000000000000000000082
:102e50000000000000000000000000000000000072
:102e60000000000000000000000000000000000062
:102e70000000000000000000000000000000000052
:102e80000000000000000000000000000000000042
:102e90000000000000000000000000000000000032
:102ea00041420000434400004500000006000000cd
:102eb0005061000073730000776f000072640000bf
:102ec0003a000000577200006f6e0000672100009a
:102ed00021000000547200007920000041670000ca
:102ee000616900006e210000210000000000000068
:102ef00000000000000000000000000000000000d2
:102f000000000000000000000000000000000000c1
:102f100000000000000000000000000000000000b1
:102f200000000000000000000000000000000000a1
:102f300000e00000f0f80000fcfc0000fefe0000d5
:102f4000fefe00001e0e0000020000000000000057
:102f50000000000000000000000000000000000071
:102f60000000000000000000000000000000000061
:102f70000000000000000000000000000000000051
:102f80000000000000000000000000000000000041
:102f90000000000000000000000000000000000031
:102fa0000000000000000000000000000000000021
:102fb0000000000000000000000000000000000011
:102fc0000000000000000000000000000000000001
:102fd0000000000000000000000300000f1f0000c0
:102fe0003f7f0000ffff0000ffff0000fffe00002a
:102ff000fcf80000f8f00000f8fe0000fefc000005
:10300000f8e00000000000000000000000000000e8
:1030100000000000000000000000000000000000b0
:1030200000000000000000000000000000000000a0
:103030000000000000000000000000000000000090
:103040000000000000000000000000000000000080
:103050000000000000000000000000000000000070
:103060000000000000000000000000000000000060
:10307000f8fc0000fefe0000ffff0000f3e000008f
:10308000e0c00000c0c00000e0e00000f1ff000070
:10309000ffff0000ffff0000ffff0000ffff000038
:1030a000ffff0000ffff0000ffff00003e000000e8
:1030b0000000000000000000000000000000000010
:1030c0000000000000000000000000000000000000
:1030d00000000000000000000000000000000000f0
:1030e00000000000000000000000000000000000e0
:1030f00000000000000000000000000000000000d0
:1031000000000000000000000000000000000000bf
:103110000000000000000000ffff0000ffff0000b3
:10312000ffff0000ffff0000ffff0000ffff0000a7
:10313000ffff0000ffff0000ffff0000ffff000097
:10314000ffff0000ffff0000ff7f00003f1f0000a7
:103150000701000000000000000000000000000067
:10316000000000000000000000000000000000005f
:10317000000000000000000000000000000000004f
:10318000000000000000000000000000000000003f
:10319000000000000000000000000000000000002f
:1031a000000000000000000000000000000000001f
:1031b000000000000000000000000000000000000f
:1031c000ffff0000ffff0000ffff0000ff7f000087
:1031d0003f1f00000f0f00000f070000070700004f
:1031e00007070000070700000303000001010000bb
:1031f00000000000000000000000000000000000cf
:1032000000000000000000000000000000000000be
:1032100000000000000000000000000000000000ae
:10322000000000000000000000000000000000009e
:10323000000000000000000000000000000000008e
:10324000000000000000000000000000000000007e
:10325000000000000000000000000000000000006e
:1032600000000000000000003f1f00000f070000ea
:10327000030100000000000000000000000000004a
:10328000000000000000000000000000000000003e
:10329000000000000000000000000000000000002e
:1032a000000000000000000000000000000000001e
:1032b000000000000000000000000000000000000e
:1032c00000000000000000000000000000000000fe
:1032d00000000000000000000000000021210000ac
:1032e000546800006520000044610000746500001f
:1032f000212100000025000030320000643a000067
:1033000025300000326400003a2500003032000011
:10331000643a0000256400002564000000000000fd
:10332000000000000000000000000000000000009d
:10333000000000000000000000000000000000008d
:10334000000000000000000000000000000000007d
:10335000000000000000000000000000000000006d
:103360000000000000e00000f0f80000fcfc00009d
:10337000fefe0000fefe00001e0e00000200000027
:10338000000000000000000000000000000000003d
:10339000000000000000000000000000000000002d
:1033a000000000000000000000000000000000001d
:1033b000000000000000000000000000000000000d
:1033c00000000000000000000000000000000000fd
:1033d00000000000000000000000000000000000ed
:1033e00000000000000000000000000000000000dd
:1033f00000000000000000000000000000000000cd
:1034000000000000000000000000000000030000b9
:103410000f1f00003f7f0000ffff0000ffff0000c4
:10342000fffe0000fcf80000f8f00000f8fe0000cd
:10343000fefc0000f8e000000000000000000000ba
:10344000000000000000000000000000000000007c
:10345000000000000000000000000000000000006c
:10346000000000000000000000000000000000005c
:10347000000000000000000000000000000000004c
:10348000000000000000000000000000000000003c
:10349000000000000000000000000000000000002c
:1034a00000000000f8fc0000fefe0000ffff00002e
:1034b000f3e00000e0c00000c0c00000e0e0000059
:1034c000f1ff0000ffff0000ffff0000ffff000012
:1034d000ffff0000ffff0000ffff0000ffff0000f4
:1034e0003e0000000000000000000000000000009e
:1034f00000000000000000000000000000000000cc
:1035000000000000000000000000000000000000bb
:1035100000000000000000000000000000000000ab
:10352000000000000000000000000000000000009b
:10353000000000000000000000000000000000008b
:10354000000000000000000000000000ffff00007d
:10355000ffff0000ffff0000ffff0000ffff000073
:10356000ffff0000ffff0000ffff0000ffff000063
:10357000ffff0000ffff0000ffff0000ff7f0000d3
:103580003f1f0000070100000000000000000000d5
:10359000000000000000000000000000000000002b
:1035a000000000000000000000000000000000001b
:1035b000000000000000000000000000000000000b
:1035c00000000000000000000000000000000000fb
:1035d00000000000000000000000000000000000eb
:1035e00000000000000000000000000000000000db
:1035f00000000000ffff0000ffff0000ffff0000d1
:10360000ff7f00003f1f00000f0f00000f070000aa
:10361000070700000707000007070000030300007a
:103620000101000000000000000000000000000098
:10363000000000000000000000000000000000008a
:10364000000000000000000000000000000000007a
:10365000000000000000000000000000000000006a
:10366000000000000000000000000000000000005a
:10367000000000000000000000000000000000004a
:10368000000000000000000000000000000000003a
:103690000000000000000000000000003f1f0000cc
:1036a0000f07000003010000000000000000000000
:1036b000000000000000000000000000000000000a
:1036c00000000000000000000000000000000000fa
:1036d00000000000000000000000000000000000ea
:1036e00000000000000000000000000000000000da
:1036f00000000000000000000000000000000000ca
:1037000000000000000000000000000000000000b9
:1037100000000000000000000000000000000000a9
:103720000000000000000000000000000000000099
:103730000000000000000000000000000000000089
:103740000000000000000000000000000000000079
:103750000000000000e00000f0f80000fcfc0000a9
:10376000fefe0000fefe00001e0e00000200000033
:103770000000000000000000000000000000000049
:103780000000000000000000000000000000000039
:103790000000000000000000000000000000000029
:1037a0000000000000000000000000000000000019
:1037b0000000000000000000000000000000000009
:1037c00000000000000000000000000000000000f9
:1037d00000000000000000000000000000000000e9
:1037e00000000000000000000000000000000000d9
:1037f00000000000000000000000000000030000c6
:103800000f1f00003f7f0000ffff0000ffff0000d0
:10381000fffe0000fcf80000f8f00000f8fe0000d9
:10382000fefc0000f8e000000000000000000000c6
:103830000000000000000000000000000000000088
:103840000000000000000000000000000000000078
:103850000000000000000000000000000000000068
:103860000000000000000000000000000000000058
:103870000000000000000000000000000000000048
:103880000000000000000000000000000000000038
:1038900000000000f8fc0000fefe0000ffff00003a
:1038a000f3e00000e0c00000c0c00000e0e0000065
:1038b000f1ff0000ffff0000ffff0000ffff00001e
:1038c000ffff0000ffff0000ffff0000ffff000000
:1038d0003e000000000000000000000000000000aa
:1038e00000000000000000000000000000000000d8
:1038f00000000000000000000000000000000000c8
:1039000000000000000000000000000000000000b7
:1039100000000000000000000000000000000000a7
:103920000000000000000000000000000000000097
:10393000000000000000000000000000ffff000089
:10394000ffff0000ffff0000ffff0000ffff00007f
:10395000ffff0000ffff0000ffff0000ffff00006f
:10396000ffff0000ffff0000ffff0000ff7f0000df
:103970003f1f0000070100000000000000000000e1
:103980000000000000000000000000000000000037
:103990000000000000000000000000000000000027
:1039a0000000000000000000000000000000000017
:1039b0000000000000000000000000000000000007
:1039c00000000000000000000000000000000000f7
:1039d00000000000000000000000000000000000e7
:1039e00000000000ffff0000ffff0000ffff0000dd
:1039f000ff7f00003f1f00000f0f00000f070000b7
:103a00000707000007070000070700000303000086
:103a100001010000000000000000000000000000a4
:103a20000000000000000000000000000000000096
:103a30000000000000000000000000000000000086
:103a40000000000000000000000000000000000076
:103a50000000000000000000000000000000000066
:103a60000000000000000000000000000000000056
:103a70000000000000000000000000000000000046
:103a80000000000000000000000000003f1f0000d8
:103a90000f0700000301000000000000000000000c
:103aa0000000000000000000000000000000000016
:103ab0000000000000000000000000000000000006
:103ac00000000000000000000000000000000000f6
:103ad00000000000000000000000000000000000e6
:103ae00000000000000000000000000000000000d6
:103af00000000000000000000000000000000000c6
:103b000000000000000000000000000000000000b5
:103b100000000000000000000000000000000000a5
:103b20000000000000000000000000000000000095
:103b30000000000000000000000000000000000085
:103b40000000000000e00000f0f80000fcfc0000b5
:103b5000fefe0000fefe00001e0e0000020000003f
:103b60000000000000000000000000000000000055
:103b70000000000000000000000000000000000045
:103b80000000000000000000000000000000000035
:103b90000000000000000000000000000000000025
:103ba0000000000000000000000000000000000015
:103bb0000000000000000000000000000000000005
:103bc00000000000000000000000000000000000f5
:103bd00000000000000000000000000000000000e5
:103be00000000000000000000000000000030000d2
:103bf0000f1f00003f7f0000ffff0000ffff0000dd
:103c0000fffe0000fcf80000f8f00000f8fe0000e5
:103c1000fefc0000f8e000000000000000000000d2
:103c20000000000000000000000000000000000094
:103c30000000000000000000000000000000000084
:103c40000000000000000000000000000000000074
:103c50000000000000000000000000000000000064
:103c60000000000000000000000000000000000054
:103c70000000000000000000000000000000000044
:103c800000000000f8fc0000fefe0000ffff000046
:103c9000f3e00000e0c00000c0c00000e0e0000071
:103ca000f1ff0000ffff0000ffff0000ffff00002a
:103cb000ffff0000ffff0000ffff0000ffff00000c
:103cc0003e000000000000000000000000000000b6
:103cd00000000000000000000000000000000000e4
:103ce00000000000000000000000000000000000d4
:103cf00000000000000000000000000000000000c4
:103d000000000000000000000000000000000000b3
:103d100000000000000000000000000000000000a3
:103d2000000000000000000000000000ffff000095
:103d3000ffff0000ffff0000ffff0000ffff00008b
:103d4000ffff0000ffff0000ffff0000ffff00007b
:103d5000ffff0000ffff0000ffff0000ff7f0000eb
:103d60003f1f0000070100000000000000000000ed
:103d70000000000000000000000000000000000043
:103d80000000000000000000000000000000000033
:103d90000000000000000000000000000000000023
:103da0000000000000000000000000000000000013
:103db0000000000000000000000000000000000003
:103dc00000000000000000000000000000000000f3
:103dd00000000000ffff0000ffff0000ffff0000e9
:103de000ff7f00003f1f00000f0f00000f070000c3
:103df0000707000007070000070700000303000093
:103e000001010000000000000000000000000000b0
:103e100000000000000000000000000000000000a2
:103e20000000000000000000000000000000000092
:103e30000000000000000000000000000000000082
:103e40000000000000000000000000000000000072
:103e50000000000000000000000000000000000062
:103e60000000000000000000000000000000000052
:103e70000000000000000000000000003f1f0000e4
:103e80000f07000003010000000000000000000018
:103e90000000000000000000000000000000000022
:103ea0000000000000000000000000000000000012
:103eb0000000000000000000000000000000000002
:103ec00000000000000000000000000000000000f2
:103ed00000000000000000000000000000000000e2
:103ee00000000000000000000000000000000000d2
:103ef00000000000000000000000000000000000c2
:103f000000000000000000000000000000000000b1
:103f100000000000000000000000000000000000a1
:103f20000000000000000000000000000000000091
:103f30000000000000e00000f0f80000fcfc0000c1
:103f4000fefe0000fefe00001e0e0000020000004b
:103f50000000000000000000000000000000000061
:103f60000000000000000000000000000000000051
:103f70000000000000000000000000000000000041
:103f80000000000000000000000000000000000031
:103f90000000000000000000000000000000000021
:103fa0000000000000000000000000000000000011
:103fb0000000000000000000000000000000000001
:103fc00000000000000000000000000000000000f1
:103fd00000000000000000000000000000030000de
:103fe0000f1f00003f7f0000ffff0000ffff0000e9
:103ff000fffe0000fcf80000f8f00000f8fe0000f2
:10400000fefc0000f8e000000000000000000000de
:1040100000000000000000000000000000000000a0
:104020000000000000000000000000000000000090
:104030000000000000000000000000000000000080
:104040000000000000000000000000000000000070
:104050000000000000000000000000000000000060
:104060000000000000000000000000000000000050
:1040700000000000f8fc0000fefe0000ffff000052
:10408000f3e00000e0c00000c0c00000e0e000007d
:10409000f1ff0000ffff0000ffff0000ffff000036
:1040a000ffff0000ffff0000ffff0000ffff000018
:1040b0003e000000000000000000000000000000c2
:1040c00000000000000000000000000000000000f0
:1040d00000000000000000000000000000000000e0
:1040e00000000000000000000000000000000000d0
:1040f00000000000000000000000000000000000c0
:1041000000000000000000000000000000000000af
:10411000000000000000000000000000ffff0000a1
:10412000ffff0000ffff0000ffff0000ffff000097
:10413000ffff0000ffff0000ffff0000ffff000087
:10414000ffff0000ffff0000ffff0000ff7f0000f7
:104150003f1f0000070100000000000000000000f9
:10416000000000000000000000000000000000004f
:10417000000000000000000000000000000000003f
:10418000000000000000000000000000000000002f
:10419000000000000000000000000000000000001f
:1041a000000000000000000000000000000000000f
:1041b00000000000000000000000000000000000ff
:1041c00000000000ffff0000ffff0000ffff0000f5
:1041d000ff7f00003f1f00000f0f00000f070000cf
:1041e000070700000707000007070000030300009f
:1041f00001010000000000000000000000000000bd
:1042000000000000000000000000000000000000ae
:10421000000000000000000000000000000000009e
:10422000000000000000000000000000000000008e
:10423000000000000000000000000000000000007e
:10424000000000000000000000000000000000006e
:10425000000000000000000000000000000000005e
:104260000000000000000000000000003f1f0000f0
:104270000f07000003010000000000000000000024
:10428000000000000000000000000000000000002e
:10429000000000000000000000000000000000001e
:1042a000000000000000000000000000000000000e
:1042b00000000000000000000000000000000000fe
:1042c00000000000000000000000000000000000ee
:1042d00000000000000000000000000000000000de
:1042e00000000000000000000000000000000000ce
:1042f00000000000000000000000000000000000be
:1043000000000000000000000000000000000000ad
:10431000000000000000000000000000000000009d
:104320000000000000e00000f0f80000fcfc0000cd
:10433000fefe0000fefe00001e0e00000200000057
:10434000000000000000000000000000000000006d
:10435000000000000000000000000000000000005d
:10436000000000000000000000000000000000004d
:10437000000000000000000000000000000000003d
:10438000000000000000000000000000000000002d
:10439000000000000000000000000000000000001d
:1043a000000000000000000000000000000000000d
:1043b00000000000000000000000000000000000fd
:1043c00000000000000000000000000000030000ea
:1043d0000f1f00003f7f0000ffff0000ffff0000f5
:1043e000fffe0000fcf80000f8f00000f8fe0000fe
:1043f000fefc0000f8e000000000000000000000eb
:1044000000000000000000000000000000000000ac
:10441000000000000000000000000000000000009c
:10442000000000000000000000000000000000008c
:10443000000000000000000000000000000000007c
:10444000000000000000000000000000000000006c
:10445000000000000000000000000000000000005c
:1044600000000000f8fc0000fefe0000ffff00005e
:10447000f3e00000e0c00000c0c00000e0e0000089
:10448000f1ff0000ffff0000ffff0000ffff000042
:10449000ffff0000ffff0000ffff0000ffff000024
:1044a0003e000000000000000000000000000000ce
:1044b00000000000000000000000000000000000fc
:1044c00000000000000000000000000000000000ec
:1044d00000000000000000000000000000000000dc
:1044e00000000000000000000000000000000000cc
:1044f00000000000000000000000000000000000bc
:10450000000000000000000000000000ffff0000ad
:10451000ffff0000ffff0000ffff0000ffff0000a3
:10452000ffff0000ffff0000ffff0000ffff000093
:10453000ffff0000ffff0000ffff0000ff7f000003
:104540003f1f000007010000000000000000000005
:10455000000000000000000000000000000000005b
:10456000000000000000000000000000000000004b
:10457000000000000000000000000000000000003b
:10458000000000000000000000000000000000002b
:10459000000000000000000000000000000000001b
:1045a000000000000000000000000000000000000b
:1045b00000000000ffff0000ffff0000ffff000001
:1045c000ff7f00003f1f00000f0f00000f070000db
:1045d00007070000070700000707000003030000ab
:1045e00001010000000000000000000000000000c9
:1045f00000000000000000000000000000000000bb
:1046000000000000000000000000000000000000aa
:10461000000000000000000000000000000000009a
:10462000000000000000000000000000000000008a
:10463000000000000000000000000000000000007a
:10464000000000000000000000000000000000006a
:104650000000000000000000000000003f1f0000fc
:104660000f07000003010000000000000000000030
:10467000000000000000000000000000000000003a
:10468000000000000000000000000000000000002a
:10469000000000000000000000000000000000001a
:1046a000000000000000000000000000000000000a
:1046b00000000000000000000000000000000000fa
:1046c00000000000000000000000000000000000ea
:020000040000fa
:1046d0000000fa000002eb006419880065358000d4
:1046e000f40f2e008482620004f0200005027200a4
:1046f0006435880075368000f40f2e0084826200d5
:1047000004b02000050272007436880075368000ff
:1047100004fe2f0004826200a400b30074368800f7
:10472000c002a900c022a900c822a900c9c2a900cc
:10473000c9e2a900c402a800c422a800c402a900ba
:10474000c422a900c422a800c402a80011c2b30058
:104750000000eb0015000700a1cbb3000000eb0048
:104760001200070041c0b3000000eb000f0007007b
:1047700041c1b3000000eb000c00070001c2b30010
:104780000000eb0009000700c1c0b3000000eb000f
:10479000060007000018290028010700300020004b
:1047a0000e0607000080fa00000006000400fa0070
:1047b000000f7800214798001e027800044278001c
:1047c000614262000482fb00610262000402420056
:1047d00066168000d5ff2f00850263000502720077
:1047e00064168800c402a9002e4290000402fb0057
:1047f00004007800a7060700c402a8000080fa00a1
:10480000000006000200fa000002eb00040f78002e
:104810000002eb00040f7800040037008040eb003a
:1048200010002000e1ff07001e0fe800741f2000a9
:104830009e027800848f5200f8ff34000080fa0056
:10484000000006000400fa00881f78001007980096
:104850000002eb00040f78000002eb00040f780068
:10486000070037001e0278009e029000048242007a
:1048700014427800044078003c0007001e0fe80056
:104880001e0478001e00900008f107000002780066
:10489000840f5400f3ff39004f0478000080fa00c1
:1048a000000006000400fa00881f78001007980036
:1048b0000002eb00040f78000002eb00040f780008
:1048c000070037001e0278009e029000048242001a
:1048d0001442780004407800420007001e0fe800f0
:1048e0001e0478001e009000f0f00700000278001f
:1048f000840f5400f3ff39004f0478000080fa0061
:10490000000006000600fa00200798000002eb00f5
:10491000040f78002e009000e4f0070000027800f9
:10492000140798000002eb00040f78000300370022
:1049300000c2b3000d0007001e0fe8009e029000a9
:1049400024002000110009008402d8000002780031
:10495000670212009e0f5200f5ff3c002e009000ef
:10496000b8ff07000080fa00000006000600fa0009
:10497000404798000002eb00040f7800540020002c
:10498000140798000002eb00040f78000c003700b9
:104990004e4290000402fb000402b1006522b900ff
:1049a000040278001e0242008537290065427a0021
:1049b00084407800100020007cff07001e0fe800f4
:1049c0001e0290009e027800848f5200f0ff350096
:1049d0008040eb001000200074ff07000080fa0008
:1049e000000006000600fa00404798000002eb00b5
:1049f000040f780054002000140798000002eb0018
:104a0000040f78000d0037004e4290000402fb00b6
:104a10000402b1006522b900040278001e024200bf
:104a20008537290065427a0004c2ea008440780094
:104a3000100020005dff07001e0fe8001e0290001e
:104a40009e027800848f5200efff350080c0eb009b
:104a50001000200055ff07000080fa00000006004b
:104a60000000fa00d1c0b3000000eb004fff0700c8
:104a70000080fa00000006000200fa00004f7800f3
:104a80009e4078000000eb0048ff07000080fa001d
:104a9000000006000400fa00000f780011079800db
:104aa0001e0278008442780004c8b30004c2720079
:104ab000844078000000eb003cff07001e029000dd
:104ac0008442780004c4b30004c2720084407800b9
:104ad0000000eb0035ff07000080fa000000060030
:104ae0000200fa00000f78001e027800844278006d
:104af00004c2b30004c27200844078000000eb00de
:104b00002aff07000080fa00000006000200fa00f9
:104b1000000f78001e0278008442780004c8b300b9
:104b200004c27200844078000000eb001fff070001
:104b30000080fa00000006000200fa000042eb00cc
:104b4000044f7800090037009e4278000582fb0080
:104b50008000eb0004007800ceff070011c0b30016
:104b60001000200011ff07001e4fe80034c5b300fd
:104b70009e42780084cf5200f3ff36000042eb00e3
:104b8000044f7800090037009e4278000582fb0040
:104b90005100200004007800beff070001c8b300e8
:104ba0001000200001ff07001e4fe80034c5b300cd
:104bb0009e42780084cf5200f3ff36000042eb00a3
:104bc000044f7800090037009e4278000582fb0000
:104bd0008400780030052000aeff070080c0eb00a5
:104be00010002000f1fe07001e4fe8001e42780072
:104bf000e54f5200f4ff36000042eb00044f78000e
:104c0000090037009e4278000582fb00840078008e
:104c10000000eb009fff070080c0eb0010002000a9
:104c2000e2fe07001e4fe8001e427800e54f5200ea
:104c3000f4ff36000080fa00000006000400fa00cd
:104c4000100798000002eb00040f78000002eb0050
:104c5000040f7800080037001e0278009e029000c2
:104c60000482420014427800844078001000200042
:104c7000cefe07001e0fe800741f20009e02780081
:104c8000848f5200f4ff34000080fa000000060018
:104c90000000fa000080fa00000006000000fa00a0
:104ca0009500070003000700500007000080fa008d
:104cb000000006000400fa00881f78000002eb00e4
:104cc000040f78000002eb00140798000002eb00cc
:104cd000040f78003f0037009e0078000000eb00d2
:104ce0006cff07000002eb00140798002d0037004e
:104cf000654280001e029000848f52000e003a0030
:104d00001e027800e00f52000b0032009442800037
:104d100084024200c4882000048242009402780089
:104d20001e02900004824200144278000440780081
:104d30002cff0700180037001e027800e00f520019
:104d40000b003a001e02780084024200c488200052
:104d500004824200940278001e0290000482420005
:104d6000144278000440780000ff07000a00370072
:104d70009442800084024200c488200004824200e1
:104d8000940278001e0290000482420014427800cf
:104d900004407800f5fe07001e0290000402e800bf
:104da000140798001e0490001e027800840242003e
:104db000c4882000048242001402780004007800b5
:104dc000baef070000027800840f5400c8ff3900d2
:104dd0001e0fe8001e027800e10f5200beff3400f3
:104de0004f0478000080fa00000006000000fa007e
:104df00074488000e00f52003d0032000002eb00da
:104e00007448880040012000330407006442800099
:104e1000e00f52000300320064428000ec0f5200a9
:104e200016003a0064428000e00f520004003a008d
:104e3000944280000402e800944288000300370096
:104e4000944280000402e900944288009442800069
:104e5000e30f520003003400140020009442880045
:104e60002300370094428000e00f52001f003c00f6
:104e700034002000944288001d00370085428000e5
:104e800074428000850078000400780001ff07006c
:104e90009442800084024200c488200004824200c0
:104ea0009402780064428000048242001442780038
:104eb00004407800adfe07007442800066024200a4
:104ec000744288007542800034052000848f5200af
:104ed00007003400844280000402e8008442880015
:104ee0000002eb007442880001003700000000005f
:104ef0000080fa00000006000600fa00881f780013
:104f00000002eb00040f78006f0407000002be00ef
:104f100014079800250798000002eb00040f7800a2
:104f2000320037001e027800cfa2de000400be006f
:104f300071ee07000002be00323323003305240067
:104f40000400be00c4ee07000002be000200200004
:104f5000031524000400be0006ee07000002be0098
:104f600018c0b3001e019000ae0190000400be0006
:104f700042ee070000027800e00f52000100350009
:104f80000044eb00e04f5400170032001e02e8001e
:104f9000cfa2de000400be0057ee07000002be00f4
:104fa000f2812f0013e823000400be00aaee0700e0
:104fb0000002be0018c0b3001e019000ae019000b8
:104fc0000400be002fee070000027800e00f520040
:104fd00001003c000044eb00e04f540002003200ae
:104fe0001e027800644288001e0fe8001e0278004e
:104ff000cfa2de000400be003fee07000002be00ac
:1050000018c0b30002002000031524000400be00f5
:105010001aee070000027800e00f52000100350090
:105020000044eb00e04f5400beff3a004f0478000c
:105030000080fa00000006000600fa00881f7800d1
:10504000200798000002eb00140798000002eb0014
:10505000040f7800ae0090000000eb008dfe07000a
:105060000002eb00040f780021003700544280005a
:105070006f4262000482fb009e0f52000e003a0055
:10508000544280004422de00634262000482fb003e
:1050900084024200e48220000482420094027800ec
:1050a0001e02780004824200144278000440780016
:1050b0004cfe07000d003700544280004422de0001
:1050c000634262000482fb0084024200e48220000a
:1050d00004824200940278001e027800048242009a
:1050e000144278000440780020fe07001e0fe800fc
:1050f0001e0478001e02900084024200e482200018
:10510000048242001402780004007800e7ee0700f1
:1051100000027800840f5400d4ff39000300070018
:105120004f0478000080fa00000006000600fa0034
:10513000881f78000002eb00040f7800e2030700ec
:105140000002be0014079800250798000002eb003b
:10515000040f7800350037001e027800cfa2de0071
:105160000400be00e4ed07000002be0062f125006d
:1051700013e723000400be0037ee07000002be0064
:1051800018c0b3001e019000ae0190000400be00e4
:10519000baed070000027800e00f52000100350070
:1051a0000044eb00e04f54001f0032001e02e800f4
:1051b000cfa2de000400be00cfed07000002be005b
:1051c00062f1250013e723000400be0022ee070071
:1051d0000002be0018c0b3001e019000ae01900096
:1051e0000400be00a7ed070000027800e00f5200a7
:1051f00001003c000044eb00e04f54000a00320084
:105200001e027800044278006f4262000482fb00b4
:105210006f0262005642800005ff2f008502630086
:1052200005027200544288001e0fe8001e0278003a
:10523000ed0f5200c8ff34004f0478000080fa00e0
:10524000000006000200fa000002eb00040f7800e4
:1052500074488000e10f52003c003a000002eb006d
:1052600074488800544280006f026200e00f5200d0
:1052700016003a00544280004422de00634262007d
:105280000442e900634262000482fb0063026200a0
:105290004422dd0056428000f5fc2f0085026300a9
:1052a0000502720054428800544280004422de000d
:1052b000634262000482fb00e00f520023003d00c5
:1052c0004a88a9004aa8a80020003700544280005c
:1052d0006f026200ec0f520016003a005442800048
:1052e0004422de00634262000442e800634262003e
:1052f0000482fb00630262004422dd00564280000b
:10530000f5fc2f00850263000502720054428800fc
:10531000544280004422de00634262000482fb00ab
:10532000e20f5200090034004a88a9004aa8a900e7
:1053300006003700500020003fff07000002eb008e
:105340007448880014002000040f78001e027800c2
:10535000e10f52000e003a00544280004422de0069
:10536000634262000482fb0084024200e482200067
:105370000482420094027800544280006f4262002e
:105380000482fb00048242001442780001003700ce
:105390000042eb00044078000080fa0000000600a4
:020000040000fa
:1053a0000a09000026000000000000004209000079
:1053b000020000000000000094080000420000000d
:1053c000020000002d2d2d004d4149004e4d45009d
:1053d0004e552d002d2d00004d45530053414700e3
:1053e00045005400494d4500004c4f0043415400d6
:1053f000494f4e0000504f00574552004f4646005f
:1054000000424100434b000000940800a308ab0099
:1054100008b00800b908c20008ffff004c080000ef
:105420004800000002000000ffff00000002000032
:1054300001002d002d2d4d004553530041474500df
:105440002d2d2d00003c41004243440045462000e4
:10545000474849004a3e00003c4b4c004d4e4f002f
:1054600050205100525354003e003c005556570006
:1054700058595a00202e21003f273e0000540800b2
:1054800062087000087e0800d608000034000000a2
:10549000020000007c2d2d002d2d5400494d4500ab
:1054a0002d2d2d002d7c00007c20200020202000b0
:1054b0002020200020202000207c00007c2d2d00ba
:1054c0002d2d2d002d2d2d002d2d2d002d7c00009e
:1054d00000d60800e508f4000800000000080000fd
:1054e0004c000000020000003c41420043444500e3
:1054f0004620470048494a003e7c00003c4b4c0097
:105500004d4e4f0050205100525354003e7c00003d
:105510003c555600575859005a202e00213f27006d
:105520003e7c0000000008000f081e00080000007c
:10553000000000000000000000000000000000006b
:10554000000000000000000000000000000000005b
:1055500030090000120000000000000044090000b3
:10556000ca00000002000000303132003334350040
:105570003637380039414200434445004600300088
:105580003132330034353600373839006162630018
:105590006465660000286e00756c6c0029000000d0
:1055a000010000000000000000000a0000000000f0
:1055b0000000000000640000000000000000000087
:1055c000e8030000000000000000100027000000b9
:1055d0000000000000a086000100000000000000a4
:1055e00040420f000000000000008000969800007c
:1055f000000000000000e100f505000000000000d0
:1056000000ca9a003b00000000000000e40b5400b8
:10561000020000000000e8007648170000000000cb
:105620000010a500d4e8000000000000a0724e00a9
:1056300018090000000040007a10f3005a00000032
:105640000080c600a47e8d000300000000c16f0032
:10565000f2862300000000008a5d780045630100a7
:1056600000006400a7b3b600e00d000000e8890068
:105670000423c7008a0000000e0a00002600000074
:1056800002000000350a000000350a000900000091
:1056900000020000370a000000370a000e02010075
:1056a00000000000000000000000000006020200f0
:1056b000000000000e0a0000340a0000060000008e
:1056c000000000003a0a0000020000000200000092
:0856d0000100000000000000d1
:020000040000fa
:1056d8000000fa0071000700030007004b000700f4
:1056e8000080fa00000006000400fa00881f780015
:1056f8000002eb00040f78000002eb00140798008a
:105708000002eb00040f78002d0037009e0078009f
:105718000000eb00ddfc07000002eb001407980016
:105728001b003700a44680009e0f52000b003a0071
:105738001e02780084024200848c20000482420009
:10574800940278001e0290000482420014427800fd
:1057580004407800a1fc07000a0037001e02780008
:1057680084024200848c2000048242009402780063
:105778001e0290000482420014427800044078001f
:1057880078fc07001e0290000402e8001407980045
:105798001e0490001e02780084024200848c2000bf
:1057a8000482420014027800040078003ded0700ee
:1057b80000027800840f5400daff39001e0fe80059
:1057c8001e027800cfa2de000400be0048ec0700ed
:1057d8000002be0018c0b300020020000308240025
:1057e8000400be0023ec070000027800e00f52001e
:1057f800010034000044eb00e04f5400c3ff3a00be
:105808004f0478000080fa00000006000000fa004b
:1058180074488000e00f52001e0032000002eb00c6
:105828007448880040012000a9010700f3fb070025
:1058380040012000a6010700a4468000e10f5200a5
:1058480003003a0014002000644888001100370063
:10585800a4468000e20f520003003a002400200012
:10586800644888000b003700a4468000e30f52000c
:1058780003003a003400200064488800050037001f
:10588800a4468000e50f520002003a0054002000b0
:10589800644888000080fa00000006000600fa004c
:1058a800881f78000002eb00040f7800040207004c
:1058b8000002be0014079800250798000002eb00bc
:1058c800040f7800320037001e027800cfa2de00f5
:1058d8000400be0006ec07000002be0032332300bd
:1058e800330524000400be0059ec07000002be0086
:1058f80002002000030824000400be009beb070000
:105908000002be0018c0b3001e019000ae01900056
:105918000400be00d7eb070000027800e00f520039
:10592800010035000044eb00e04f5400170032003e
:105938001e02e800cfa2de000400be00eceb070068
:105948000002be003233230033f523000400be00fa
:105958003fec07000002be0018c0b3001e01900013
:10596800ae0190000400be00c4eb070000027800fe
:10597800e00f520001003c000044eb00e04f5400ef
:10598800020032001e02e800a44688001e0fe8004c
:105998001e027800cfa2de000400be00d4eb070090
:1059a8000002be0018c0b300020020000308240053
:1059b8000400be00afeb070000027800e00f5200c1
:1059c800010035000044eb00e04f5400beff3a00f0
:1059d8004f0478000080fa00000006000000fa007a
:1059e80024002000c448880084002000d44888008f
:1059f80024032000e4488800610107000080fa00c1
:105a0800000006000000fa008000eb000000eb0038
:105a18001efc0700244880000400780087fb07006c
:105a2800110020000000eb0018fc0700344880003b
:105a38000400780081fb0700210020000000eb0033
:105a480012fc070034488000040078007bfb070044
:105a5800310020000000eb000cfc070034488000f7
:105a68000400780075fb0700410020000000eb00ef
:105a780006fc070034488000040078006ffb07002c
:105a8800510020000000eb0000fc070044488000a3
:105a98000400780069fb070014002000b44888005f
:105aa8000080fa00000006000000fa00b4488000f8
